:100000000C94F5010C9437210C9410210C941A22B5
:100010000C941A220C941A220C941D020C941D02AA
:100020000C941D020C941D020C941D020C945E2174
:100030000C941D020C941D020C941D020C941D02C4
:100040000C94C6200C941D020C9494200C946E20E9
:100050000C941D020C941D020C941D020C941D02A4
:100060000C9492220C941D024572726F7220696E7C
:10007000205350495F4441544120636F6D6D616E60
:10008000643A20656D707479206D6573736167657E
:10009000004572726F7220656E61626C696E6720D6
:1000A000535049206D6F6465005350492E62656757
:1000B000696E2829005350495F424547494E3A200E
:1000C0004F6E6C79206368616E6E656C20302073B2
:1000D0007570706F72746564005350495F44455683
:1000E0004943455F434F4E4649473A204F6E6C792E
:1000F000206368616E6E656C203020737570706F60
:10010000727465643A20005350495F444556494330
:10011000455F434F4E4649473A204F6E6C79203831
:100120002062697420776F72647320737570706FCA
:1001300072746564005350495F4445564943455FB6
:10014000434F4E4649473A204D6178206E756D62A7
:100150006572206F662064657669636573206578D3
:10016000636565646564004E6F7420656E6F7567C6
:1001700068206461746120696E205350495F444572
:10018000564943455F434F4E464947206D6573735B
:1001900061676500556E6B6E6F776E205350492016
:1001A000636F6D6D616E643A20005350495F545225
:1001B000414E534645523A2053656E64206275663F
:1001C000666572206E6F74206C6172676520656E63
:1001D0006F756768005350495F5452414E5346450E
:1001E000523A20556E6B6E6F776E20646576696348
:1001F000654964207370656369666965643A2000C7
:100200004E6F7420656E6F7567682064617461203D
:10021000696E20535049206D6573736167650053A3
:100220005049206E6F7420656E61626C65642E00AB
:100230005350492E656E642829004572726F7220F2
:10024000696E2044485420636F6D6D616E643A207E
:100250004E6F7420656E6F75676820706172616D96
:10026000657465727300556E6B6E6F776E20706982
:100270006E206D6F646500556E68616E646C6564B8
:1002800020737973657820636F6D6D616E640043D0
:10029000616E6E6F74206368616E67652070696E51
:1002A000206E756D626572207768696C6520616388
:1002B0007469766500496E76616C69642070696E58
:1002C000206E756D62657220666F72206672657150
:1002D00075656E637920636F6D6D616E6400493280
:1002E000433A20546F6F206D616E79206279746596
:1002F0007320726563656976656400746F6F206D45
:10030000616E7920717565726965730031302D6297
:1003100069742061646472657373696E67206E6FBF
:100320007420737570706F727465640053706563C8
:100330006966792073657269616C20525820616E1C
:10034000642054582070696E73000000000024007F
:1003500027002A0000000008000201000003040733
:100360000000000000000000426F6F74696E67209B
:100370006465766963652E205374616E64206279CA
:100380002E2E2E0044697363617264696E67206962
:100390006E707574206D6573736167652C206F7561
:1003A00074206F662062756666657200000000004A
:1003B00023002600290000000000250028002B0053
:1003C00004040404040404040202020202020303FB
:1003D0000303030301020408102040800102040803
:1003E0001020010204081020162411241FBECFEF94
:1003F000D8E0DEBFCDBF12E0A0E0B1E0E2E4FAE574
:1004000002C005900D92AC34B107D9F726E0ACE4F8
:10041000B2E001C01D92A938B207E1F711E0C5EFC3
:10042000D1E004C02197FE010E940C2BC43FD107EC
:10043000C9F70E94C7250C941F2D0C940000282F8B
:1004400030E02B583B4FF901E45BFF4F90819F3721
:1004500069F02E593F4FD9011C926083E091F50459
:10046000F091F604309711F070E009940895A0918E
:100470007504B0917604ED91FC9111970190F08193
:10048000E02D682FCD010994CF93DF93C5E7D4E029
:1004900088819981DC01ED91FC910190F081E02D42
:1004A00067EF099588819981DC01ED91FC910680C7
:1004B000F781E02DDF91CF9109940F931F93CF9394
:1004C000DF93EC0105E714E0D8018D919C916C2F2E
:1004D0006F77DC01ED91FC910190F081E02D0995A1
:1004E000F80180819181CC0FCD2FCC1FDD0B6C2FBB
:1004F0006F77DC01ED91FC910190F081E02DDF91AF
:10050000CF911F910F910994809175049091760479
:10051000DC01ED91FC910190F081E02D60EF0994F8
:10052000CF93DF93C5E7D4E088819981DC01ED9119
:10053000FC910190F081E02D69EF09958881998106
:10054000DC01ED91FC910190F081E02D62E00995D4
:1005500088819981DC01ED91FC910190F081E02D81
:1005600067E0DF91CF910994CF92DF92EF92FF92F3
:10057000CF93DF93EC016A017B01E889F98982E07E
:100580008083C11481EED806E104F104A1F060E09B
:1005900079E08DE390E0A70196010E94D1292150D6
:1005A00031094109510956954795379527952115E8
:1005B00080E1380798F0E889F989108260E874E8EA
:1005C0008EE190E0A70196010E94D12921503109C6
:1005D000410951095695479537952795EC85FD8535
:1005E0003083EE85FF852083188EEC89FD8986E0B7
:1005F0008083EA89FB89808180618083EA89FB8925
:10060000808188608083EA89FB898081806880831B
:10061000EA89FB8980818F7D8083DF91CF91FF9074
:10062000EF90DF90CF900895E0916205E53158F4A6
:1006300021E02E0F20936205F0E0EE0FFF1FE85C33
:10064000FA4F91838083089581E08093ED041092A6
:100650007B0410927C0410927D04EEE7F4E011928A
:1006600084E0EE3BF807D9F71092BE041092C00464
:100670001092BF04E091F904F091FA04309709F068
:1006800009951092ED0408950F931F93CF93C82FEF
:100690008B01803198F480917504909176046C2FD1
:1006A000606EDC01ED91FC910190F081E02D0995E7
:1006B000C801CF911F910F910C945D020E9484029A
:1006C0008091750490917604DC01ED91FC9101908C
:1006D000F081E02D6FE60995809175049091760484
:1006E000DC01ED91FC910190F081E02D6C2F0995DA
:1006F000C8010E945D02CF911F910F910C9444029A
:10070000CF93DF9300D01F92CDB7DEB78F70806993
:100710008983862F8F778A83660F672F661F770BF3
:100720006B838091750490917604DC01ED91FC91CE
:100730000280F381E02D43E050E0BE016F5F7F4F08
:1007400009950F900F900F90DF91CF910895CF9260
:10075000DF92EF92FF926B017C01862F8F770E94D0
:100760003702D701C60127E0B695A79597958795DB
:100770002A95D1F78F770E943702D701C6013EE054
:10078000B695A795979587953A95D1F78F770E945B
:100790003702D701C60145E1B695A795979587958C
:1007A0004A95D1F78F770E943702D701C6015CE1E5
:1007B000B695A795979587955A95D1F7FF90EF90A5
:1007C000DF90CF900C943702AF92BF92CF92DF921E
:1007D000EF92FF920F931F93CF93DF936C017B01F6
:1007E0008B01040F151FEB015E01AE18BF08C01787
:1007F000D10759F06991D601ED91FC910190F081FA
:10080000E02DC6010995892B79F7C501DF91CF91BC
:100810001F910F91FF90EF90DF90CF90BF90AF901E
:1008200008950895FC01538D448D252F30E0842FC9
:1008300090E0821B930B541710F0CF960895019708
:100840000895FC01918D828D981761F0A28DAE0FF5
:10085000BF2FB11D5D968C91928D9F5F9F73928F7C
:1008600090E008958FEF9FEF0895FC01918D828DA8
:10087000981731F0828DE80FF11D858D90E0089575
:100880008FEF9FEF0895FC01918D228D892F90E0CD
:10089000805C9F4F821B91098F73992708958CE785
:1008A00093E00E94430421E0892B09F420E0822F89
:1008B000089580E090E0892B29F00E944F04811177
:1008C0000C9400000895FC01A48DA80FB92FB11D50
:1008D000A35ABF4F2C91848D90E001968F73992776
:1008E000848FA689B7892C93A089B1898C91837054
:1008F00080648C93938D848D981306C00288F3894D
:10090000E02D80818F7D80830895EF92FF920F9379
:100910001F93CF93DF93EC0181E0888F9B8D8C8DAB
:1009200098131AC0E889F989808185FF15C09FB79F
:10093000F894EE89FF896083E889F9898081837062
:10094000806480839FBF81E090E0DF91CF911F9111
:100950000F91FF90EF900895F62E0B8D10E00F5F32
:100960001F4F0F731127E02E8C8D8E110CC00FB608
:1009700007FCFACFE889F989808185FFF5CFCE01A0
:100980000E946304F1CFEB8DEC0FFD2FF11DE35AB4
:10099000FF4FF0829FB7F8940B8FEA89FB89808123
:1009A0008062CFCF0F931F93CF93DF938C01D0E062
:1009B000C0E0F801EC0FFD1F6491662341F08CE765
:1009C00093E00E948504892B11F02196F2CFCE018D
:1009D000DF91CF911F910F910895CF93DF93EC0199
:1009E000888D8823B9F0AA89BB89E889F9898C9117
:1009F00085FD03C0808186FD0DC00FB607FCF7CFD3
:100A00008C9185FFF2CF808185FFEDCFCE010E94D2
:100A10006304E9CFDF91CF91089590E0FC01EC5A97
:100A2000FC4F2491FC01EC52FC4F3491FC01E0544A
:100A3000FC4FE491EE23C9F0222339F0233001F179
:100A4000A8F4213019F1223029F1F0E0EE0FFF1F58
:100A5000EA54FC4FA591B4918FB7F894EC916111D1
:100A600026C030953E233C938FBF08952730A9F0D0
:100A70002830C9F0243049F7809180008F7D03C071
:100A8000809180008F7780938000DFCF84B58F774F
:100A900084BDDBCF84B58F7DFBCF8091B0008F7795
:100AA0008093B000D2CF8091B0008F7DF9CF3E2BE4
:100AB000DACFCF93DF9390E0FC01EC52FC4F24910E
:100AC00080549C4FFC0184918823C9F090E0880FEA
:100AD000991FFC01E65BFC4FA591B491FC01EA541F
:100AE000FC4FC591D49161110DC09FB7F8948C91C2
:100AF000209582238C938881282328839FBFDF91B0
:100B0000CF910895623051F49FB7F8943C91822FB1
:100B1000809583238C93E8812E2BEFCF8FB7F894A9
:100B2000EC912E2B2C938FBFEACF8E3008F08E5095
:100B30008770806480937C0080917A0080648093C9
:100B40007A0080917A0086FDFCCF809178009091A8
:100B5000790008953FB7F894809128039091290374
:100B6000A0912A03B0912B0326B5A89B05C02F3F67
:100B700019F00196A11DB11D3FBFBA2FA92F982FC3
:100B80008827BC01CD01620F711D811D911D42E0BE
:100B9000660F771F881F991F4A95D1F708958F9286
:100BA0009F92AF92BF92CF92DF92EF92FF926B0132
:100BB0007C010E94AA054B015C01C114D104E1042F
:100BC000F104B9F00E94AA05681979098A099B09FC
:100BD000683E73408105910580F321E0C21AD10877
:100BE000E108F10888EE880E83E0981EA11CB11C74
:100BF000E4CFFF90EF90DF90CF90BF90AF909F90A9
:100C00008F9008952FB7F894609124037091250375
:100C100080912603909127032FBF08958F929F9272
:100C2000AF92BF92CF92DF92EF92FF92CF93C82FF5
:100C30000E9402064B015C01F894C0906B04D090B6
:100C40006C04E0906D04F0906E0478940E9484022D
:100C50008DE70E94370282E00E9437028C2F0E94AB
:100C60003702C501B4010E94A703C701B6010E9463
:100C7000A703CF91FF90EF90DF90CF90BF90AF9000
:100C80009F908F900C944402E82FF0E0882359F055
:100C9000813059F0EE0FFF1FE050FF4F87E596E0DF
:100CA000918380830895E898F5CFE998F3CF08956C
:100CB000DF92EF92FF920F931F93CF93DF93EC019C
:100CC000D62E7A01890188818C3008F067C061E0F6
:100CD0008D2D0E9459058881282F30E0F901EE0FF3
:100CE000FF1FE20FF31FE150FD4F9D2D9F736081A9
:100CF000607C692B608320E232E02E193F0937FFC8
:100D000002C02D5F3F4F359527953595279529834F
:100D100020E639E0201B310B37FF02C02D5F3F4F2B
:100D200035952795359527952A832CE0622F0E94CB
:100D3000EC2A829FB001112430E020E0AB01420F89
:100D4000531FFA01EE0FFF1FE40FF51FE150FD4F97
:100D5000908196FD16C02F5F3F4F2C30310571F703
:100D600081110FC01092800082E080938100109268
:100D7000850010928400B19A80916F008260809308
:100D80006F00E8818E2F90E0FC01EE0FFF1FE80F4F
:100D9000F91FE150FD4F8081806480838881DF915D
:100DA000CF911F910F91FF90EF90DF900895CF9218
:100DB000DF92EF92FF92CF93DF93DC011796CC91F5
:100DC0001797D0E06111DC2F18962C91189730E01E
:100DD000220F331F24553C4F50E040E0F90185912C
:100DE0009491FC01F080BA0190E080E0EF2DEC23BB
:100DF000ED1310C04F5F5F4F1D96CD90DD90ED90CD
:100E0000FC9050976C157D058E059F0538F36FEFAC
:100E10007FEFCB01DF91CF91FF90EF90DF90CF90EC
:100E200008958F929F92AF92BF92CF92DF92EF92EE
:100E3000FF920F931F93CF93DF93CDB7DEB7C054CC
:100E4000D1400FB6F894DEBF0FBECDBF8C010E941B
:100E50000206F801C184D284E384F4849B01AC01CE
:100E60002C193D094E095F0969017A0130EDC3165D
:100E700037E0D306E104F104A8F48189C05CDE4FB9
:100E80000FB6F894DEBF0FBECDBFDF91CF911F919B
:100E90000F91FF90EF90DF90CF90BF90AF909F9019
:100EA0008F90089561877287838794871482138255
:100EB00012821182108262E085810E94590561E0F0
:100EC00070E080E090E00E94CF0561E0F80185814C
:100ED0000E94590560E0F80185810E940D05F80126
:100EE00086818551823028F58BE291E10197F1F7F7
:100EF00062E0F80185810E945905F801828990E03D
:100F00008230910538F0880F991F880F991F059737
:100F10000197F1F7F89460E0C8010E94D7066F3F8F
:100F20007F4F8F4F9F4F61F4F801118A789480E0D2
:100F3000A5CF64E170E080E090E00E94CF05D8CFBB
:100F400061E0C8010E94D7066F3F7F4F8F4F9F4FD0
:100F500059F39E012F5F3F4F79015E013FEBA31ACA
:100F60003EEFB30A670160E0C8010E94D706F601B0
:100F7000608371838283938361E0C8010E94D706F6
:100F8000F6016483758386839783F8E0CF0ED11CC6
:100F9000CA14DB0441F7789430E020E0F701808048
:100FA0009180A280B3804481558166817781FFEF73
:100FB0008F169F06AF06BF0631F04F3F8FEF5807E1
:100FC0006807780719F4F801118AB1CFF90183E0B5
:100FD000F595E7958A95E1F7E00FF11F8081880F7D
:100FE00084169506A606B706F0F080832F5F3F4F64
:100FF000F8E0EF0EF11C2832310581F6F80144814A
:1010000020818181280F3327331F8281280F311DD2
:101010008381820F932F911D99274817190699F6FE
:1010200081E0818B2BCF8160E0CF2091FB0230915A
:10103000FC022817390771F49091FA028091F902A5
:10104000981741F0E091FA02F0E0E754FD4F8081FB
:1010500090E008958FEF9FEF0895EF92FF920F9326
:101060001F93CF93DF93DC015C96ED90FC905D972E
:10107000E114F10479F481E090E013969C938E934F
:10108000129790E080E0DF91CF911F910F91FF9038
:10109000EF9008955196ED91FC91529750968C9156
:1010A0005097982F90950FB75E962C915E97122FC0
:1010B000127021FD6095F8942081112319F1282BDD
:1010C0002083E7012197F1F728E0462F50E0308197
:1010D00060FF1AC0382B3083E7012197F1F7BA017E
:1010E00075956795215089F7112381F080818923B7
:1010F00080830FBF5C968D919C910197F1F781E001
:1011000090E0C1CF2923DCCF3923E5CF9081892B13
:10111000EFCF2091FB023091FC022817390761F4D0
:101120008091F9022091FA0290E0805C9F4F821B2F
:1011300091098F739927089590E080E00895209198
:10114000FB023091FC0228173907B9F49091FA029A
:101150008091F902981789F0E091FA02F0E0E754E3
:10116000FD4F80812091FA0230E02F5F3F4F2F73B7
:1011700033272093FA0290E008958FEF9FEF0895B0
:10118000E091FB02F091FC02E817F90769F4A389EA
:10119000B4899C918589809589238C931092FC0257
:1011A0001092FB0281E0089580E00895CF93DF93D1
:1011B000EC018A8D9B8D892B01F18091FB0290912E
:1011C000FC028C179D07C9F0009711F00E94C0081F
:1011D0008E8D8E7F8E8F1092F9021092FA02D0932C
:1011E000FC02C093FB02EB89FC8980819D89892BDD
:1011F000808381E0DF91CF91089580E0FBCF209143
:101200009402260F3327331F21323105ECF420914D
:101210005203FC0190E080E0243069F082E0089500
:10122000A09194022191AC014E585D4FA40FB52FAF
:10123000B11D2C930196861798F380919402680F44
:101240006093940280E0089581E00895ECEBF0E073
:1012500080818A7B808360E082E10E940D0560E0EE
:1012600083E10C940D051092520381E080935103A9
:1012700010922C0361E082E10E940D0561E083E1A0
:101280000E940D05E9EBF0E080818E7F80838081F4
:101290008D7F808388E48093B80085E48093BC00D0
:1012A0000895CF93DF9391E090937102882361F0CA
:1012B000C091B800D091BA000E9426090E9433095B
:1012C000D093BA00C093B800DF91CF9108958F9268
:1012D0009F92AF92BF92CF92DF92EF92FF920F93C5
:1012E0001F93CF93DF93D0917B03D13208F0D7C007
:1012F000182FC0917A030E94AA056B017C0180918E
:10130000520381116BC082E080935203109351030A
:101310008FEF8093500310924F03D0934E03AAE5B2
:10132000B3E0EEE2F3E080E0D81391C010922D0319
:1013300080912D03CC0FC82BC0932D0380912C03DB
:10134000813009F088C010922C030E94AA056B011D
:101350007C0180912D038093BB0080915403909178
:101360005503A0915603B0915703892B8A2B8B2BE1
:10137000A1F00E94AA0500915403109155032091F9
:101380005603309157036C197D098E099F09061782
:1013900017072807390708F442C08091BC0083FD75
:1013A000D8CF85EC8093BC000E94AA056B017C011C
:1013B00080915203823009F450C0809150038F3FD6
:1013C00009F46FC080915003803209F46CC08091A1
:1013D0005003803309F469C084E026C0809154032F
:1013E00090915503A0915603B0915703892B8A2BF6
:1013F0008B2B09F484CF0E94AA058090540390900F
:101400005503A0905603B09057036C197D098E09BF
:101410009F0986169706A806B90608F070CF809136
:1014200053030E94510985E01092590310927B03E7
:1014300010925803DF91CF911F910F91FF90EF9081
:10144000DF90CF90BF90AF909F908F9008959D9127
:1014500091938F5F69CF85EEA5CF809154039091D2
:101460005503A0915603B0915703892B8A2B8B2BE0
:1014700009F49ECF0E94AA050091540310915503D0
:1014800020915603309157036C197D098E099F09ED
:10149000061717072807390708F08ACFC0CF81E061
:1014A000C3CF80E0C1CF82E0BFCF83E0BDCF08953E
:1014B0000895E091700280916F02E81730F4F0E037
:1014C000E15BFD4F808190E008958FEF9FEF0895DD
:1014D0009091700280916F022FEF3FEF981748F4C0
:1014E000E92FF0E0E15BFD4F208130E09F5F9093BA
:1014F0007002C901089580916F0290917002891B5A
:10150000990B0895CF92DF92EF92FF920F931F9362
:10151000CF93DF937C01CB018A01209158032223D2
:1015200089F0EB016B01C40ED51ECC15DD0569F009
:101530006991D701ED91FC910190F081E02DC701F7
:101540000995F3CF642F0E94FF08C801DF91CF9166
:101550001F910F91FF90EF90DF90CF900895CF9360
:10156000DF931F92CDB7DEB7698320915803222302
:10157000F9F020917B03203258F021E030E0FC01AB
:101580003383228390E080E00F90DF91CF91089524
:1015900080915903E82FF0E0E65AFC4F998190833F
:1015A0008F5F8093590380937B0381E090E0ECCFC1
:1015B00061E0CE0101960E94FF08F7CF90E080E045
:1015C00008950895693091F038F489589F4F683034
:1015D00049F090E080E008956A3059F083589F4FB9
:1015E0006B30B9F7FC0180819181089587589F4F36
:1015F000F9CF85589F4FF6CF2F923F924F925F922F
:101600006F927F928F929F92AF92BF92CF92DF9212
:10161000EF92FF920F931F93CF93DF9300D000D0F0
:10162000CDB7DEB7DC0192962C9127FDFBC09C83E1
:101630008B830E9402064B015C011A82BA818B2FB8
:1016400090E0EB81FC8122A1022E000C330B2817C5
:1016500039070CF4E7C08E0F9F1FDC011296BC9176
:10166000B9836B2FCF010E94E20A7C01892B09F418
:10167000C2C0E981E83040F08091FB029091FC0209
:10168000E816F90609F0B7C0F981CF2ED12CF60182
:101690003596EE0FFF1F2B813C81E20FF31F008177
:1016A0001181D701ED91FC910084F185E02DC701F6
:1016B0000995181619060CF09EC0EB81FC81EC0D03
:1016C000FD1DED5AFF4FA0813601660C771CA1115C
:1016D00049C080EF0E94370280E60E94370289816C
:1016E00080640E9437020115110559F0D701ED9170
:1016F000FC910084F185E02DC701099508171907B1
:101700004CF0D701ED91FC910084F185E02DC701EB
:1017100009958C01EB81FC816E0E7F1EF301E15A6D
:10172000FF4F80819181801B910B97FD74C0918345
:101730008083101611060CF071C0D701ED91FC9159
:101740000284F385E02DC7010995D82E8F770E947A
:1017500037028D2D881F8827881F0E94370201506D
:101760001109E7CFEB81FC81E60DF71DE15AFF4F30
:101770002081318112161306F4F4F601EE0FFF1FDB
:10178000EE0FFF1F4B815C81E40FF51F23A034A0F7
:1017900045A056A0B501A401421953096409750971
:1017A0001A012B014A2F50E070E060E02416350644
:1017B0004606570650F50115110509F580339105C8
:1017C00024F528173907BCF420E0CC0CDD1CCC0C28
:1017D000DD1CEB81FC81EC0DFD1D83A294A2A5A272
:1017E000B6A2EB81FC81E60DF71DE15AFF4F918314
:1017F000808321116ECFBA81BF5FBA831FCF1016CD
:101800001106FCF680179107E4F2281739070CF04F
:1018100060CF21E0DACF118210828BCF87EF0E9458
:101820003702E9CF0F900F900F900F90DF91CF917B
:101830001F910F91FF90EF90DF90CF90BF90AF90EE
:101840009F908F907F906F905F904F903F902F90E0
:101850000895089581E04A30510509F080E0089527
:101860000895FC01E65BFF4F2081222331F01082B6
:10187000855B9F4F2FEFFC012083089562516230FA
:1018800030F486E00E94370281E00C94370208951C
:101890009C018EEE860F8230B0F446305105A9F0DF
:1018A000D901A65BBF4F8C91882371F0E62FF0E041
:1018B000EF53FB4F8081863031F41C92255B3F4F04
:1018C0008FEFF901808380E0089581E00895089505
:1018D000CF93DF93FC012281338137FD0CC0EC01F3
:1018E0002230310559F081E02330310541F08FEF8E
:1018F0009FEF9B838A83DF91CF91089580E00E94C0
:101900004406F5CF90E080E0623031F08FEF9FEF3A
:10191000633011F481E090E06250623140F401964E
:1019200031F080E10E94370280E00C943702089584
:10193000CF93DF9330E020E0623031F02FEF3FEFC4
:10194000633011F421E030E07EEF760F7231A0F4C5
:101950002F3F320789F04031510581F0FC0142816F
:1019600053816417150641F4EC01822F0E9444064E
:101970008FEF9FEF9B838A8380E001C081E0DF913E
:10198000CF910895CF92DF92EF92FF92CF93DF93A2
:10199000EC010E9402066B01770FEE08FF088885B4
:1019A0009985AA85BB85C816D906EA06FB066CF0A0
:1019B0004C815D816E817F81840F951FA61FB71FAB
:1019C0008C159D05AE05BF054CF48A819B8197FF60
:1019D0000E940E06C886D986EA86FB86DF91CF91E3
:1019E000FF90EF90DF90CF90089580916B049091DD
:1019F0006C04A0916D04B0916E040196A11DB11DFF
:101A000080936B0490936C04A0936D04B0936E0468
:101A10000895CF93DF93EC010E9402066E837F83CB
:101A20008887998783E190E09B878A87DF91CF91B0
:101A300008956A37C1F44230B0F0F9014181F0E80D
:101A40004F9FA0011124F9012081240F352F311D52
:101A50002115310529F0FC013387228781E00895A3
:101A600021E030E0F8CF80E0089580E00895089507
:101A70000F931F93CF93DF938C01D62FC0E0D80133
:101A80009C968C91C81798F4EC2FF0E03196EE0FED
:101A9000FF1FE00FF11F80819181DC01ED91FC912E
:101AA0000084F185E02D6D2F0995CF5FE8CFDF91A0
:101AB000CF911F910F9108950F931F93CF938C0196
:101AC000C0E0D8019C968C91C81790F4EC2FF0E000
:101AD0003196EE0FFF1FE00FF11F80819181DC0135
:101AE000ED91FC910680F781E02D0995CF5FE9CF5C
:101AF000CF911F910F910895CF93C0E082EF8C0F8B
:101B000062E0883028F08EEF8C0F823120F461E0A3
:101B10008C2F0E941F02CF5FC63181F786E395E0CC
:101B2000CF910C945C0DDF92EF92FF920F931F9375
:101B3000CF93DF93EC01E62ED42E89018BE6681754
:101B4000D1F1ADE66A1364C0442309F47CC0F90105
:101B5000C081C63108F077C080EF0E9437028EE660
:101B60000E9437028C2F0E943702D0E0CB58DB4F07
:101B7000FE01E45BFF4F80810E943702CE59DF4FA8
:101B8000C8818C2F8F770E9437028C2F90E0C7FF7F
:101B900006C0880F892F881F990B0E94370287EF94
:101BA0000E94370281E0DF91CF911F910F91FF904A
:101BB000EF90DF90089580EF0E9437028CE60E943C
:101BC000370201EC14E0F12CD8018D918D018F3793
:101BD000B9F0E12C8CA5E81698F4EE2DF0E03196E2
:101BE000EE0FFF1FEC0FFD1F80819181DC01ED9155
:101BF000FC910190F081E02D6F2D0995E394EACFDF
:101C00008FE70E943702F394B6E1FB12DDCFC7CF16
:101C1000F12C8CA5F816B8F4EF2DF0E03196EE0F0C
:101C2000FF1FEC0FFD1F80819181DC01ED91FC9184
:101C30000480F581E02D98014D2D6E2D09958111BF
:101C4000B2CFF394E6CF80E0AECFDF92EF92FF9277
:101C50000F931F93CF93DF93EC01D62E8A01F12CC3
:101C6000E12C8CA5F816A8F4EF2DF0E03196EE0FDC
:101C7000FF1FEC0FFD1F80819181DC01ED91FC9134
:101C80000280F381E02DA8016D2D0995E82AF394D7
:101C9000E8CF8E2DDF91CF911F910F91FF90EF90A4
:101CA000DF90089508956250623130F481E00E941F
:101CB000370281E00C9437020895CF938EEF860FA0
:101CC0008231B0F44130510599F4E62FF0E0EF5342
:101CD000FB4F80818F3761F0C62F60E08C2F0E9410
:101CE0000D0561E08C2F0E94590581E0CF91089588
:101CF00080E0FCCF80E008951F93CF93DF939EEFA9
:101D0000980F923180F4C82FD0E0CB58DB4FFE0102
:101D1000E45BFF4F9081913031F4162F0E940D0546
:101D2000CE59DF4F1883DF91CF911F910895AF9265
:101D3000BF92CF92DF92EF92FF920F931F93CF93B8
:101D4000DF93833008F04BC091E0980F990F990F03
:101D5000990FB92E973110F026E1B22EC62FE82E3A
:101D60009850092F10E0D0E0FF24F394802F0B153A
:101D700058F59EEF900F9231C8F4A8014B585B4F75
:101D8000FA01E45BFF4F2081223080F49F2D9C23D9
:101D9000AA24A394911101C0A12CBA016E597F4FBE
:101DA0006B01213039F4DF29F601A082FF0C0F5FAF
:101DB0001F4FDCCF9923C1F3FB0190819130A1F338
:101DC00062E00E945905F0CFE11014C0F8948BB185
:101DD000682F6C276C7F6D2368276BB97894DF912F
:101DE000CF911F910F91FF90EF90DF90CF90BF9018
:101DF000AF900895F1E0EF121AC0CD23F89495B199
:101E00008D2F8F73809589239C2F9F73892B85B984
:101E100088B16D2F629566956695637060956823AD
:101E2000C295C695C695C370C62BC8B9D7CF6D2FBE
:101E30006F70F89498B1862F880F880F809589234A
:101E40006C23660F660F682B68B9C8CF0895FC0134
:101E500012821086158213821186168214821286CF
:101E6000178208956250623160F480E00E94370268
:101E700081E00E9437028BE00E94370281E00C94DF
:101E800037020895CF932EEF260F223188F5E62FE3
:101E9000E695E695E695E80FF92FF11D8085962FDA
:101EA000977021E030E001C0220F9A95EAF74115C2
:101EB000510519F04B305105B9F4C62F282B208756
:101EC000452B31F460E08C2F0E94590581E00AC057
:101ED00062E08C2F0E945905EC2FF0E0E952FB4F95
:101EE00081E08083CF910895209528232087EECF2D
:101EF00080E0F8CF1F93CF93DF936623E1F1EC01ED
:101F00008A81882369F019B11C7F888518238D8107
:101F1000181731F0612F70E080E00E9480031D836C
:101F20008B81882399F0298513B186B11F7330E422
:101F3000839FC0011124182B12238E81181731F0B2
:101F4000612F70E081E00E9480031E838C818823D2
:101F500091F086B190E095958795959587958F70CE
:101F60001A8518238F81181731F0612F70E082E0F5
:101F70000E9480031F83DF91CF911F9108951F93CB
:101F8000CF93DF938330B0F4C0910205D091030565
:101F9000C80FD11D6A83672B69F0488581110EC077
:101FA00029B12C7F2423142F1223612F70E00E946B
:101FB00080031D83DF91CF911F910895813049F4F3
:101FC00023B166B12F7390E4699FB0011124262BD1
:101FD000E9CF96B1292F30E035952795359527958E
:101FE0002F70E0CF633039F08BEF860F823018F01E
:101FF0006950633030F483E00E94370288E00C942B
:1020000037020895FF920F931F93CF93DF93F90147
:102010006F3609F077C0423008F474C0F080C18197
:10202000D0E0423091F0828120E8829FC0011124EB
:10203000C82BD92B433049F0838190E090E4899FED
:10204000902D88271124C82BD92B0F2D10E0F801D3
:10205000EF53FB4F80818250823098F561E08F2DE5
:102060000E945905209729F460E08F2D0E940D05EC
:1020700028C0CF3FD10511F461E0F7CFF801EC5A49
:10208000FC4FE491E33021F140F4E130B1F0E23073
:10209000D1F0C038D10584F7E7CFE73019F1E83047
:1020A00049F1E430B1F78091800080628093800034
:1020B000D0938B00C0938A0004C084B5806884BD2F
:1020C000C7BD81E020C084B5806284BDC8BDF9CFA2
:1020D00080918000806880938000D0938900C093B5
:1020E0008800EFCF8091B00080688093B000C093EB
:1020F000B300E7CF8091B00080628093B000C093BE
:10210000B400DFCF80E0DF91CF911F910F91FF905E
:1021100008950895EF92FF920F931F93CF93662334
:1021200019F17C01C2EF10E000E0C830C0F4F80102
:10213000EF53FB4F8081823091F4F70182819381CC
:102140000C2E02C0959587950A94E2F780FF07C090
:10215000802F0E949505BC018C2F0E9444030F5FC5
:102160001F4FCF5FC83009F7CF911F910F91FF909C
:10217000EF900895FC011382128208956E5068302A
:1021800030F482E00E9437028AE00C94370208950E
:10219000CF93DC016830B0F412968D919C91139727
:1021A000E1E0F0E0062E02C0EE0FFF1F0A94E2F716
:1021B00041110AC0E095F095E823F9231396FC93AA
:1021C000EE931297CF910895E82BF92B1396FC9379
:1021D000EE9312978091ED048111F4CF822FC62FD8
:1021E0000E949505BC018C2FCF910C944403CF9392
:1021F000DF93FC016936B9F480EF0E9437028AE66A
:102200000E943702C2EF8C2FC83008F08FE70E947F
:102210003702CF5FC830B9F787EF0E94370281E0FD
:10222000DF91CF910895643601F54230F0F0D90185
:102230006C91A62FB0E050E040E0942FEA012E9779
:10224000AC17BD0731F04F5F5F4F46315105A9F71D
:1022500090E041E0D90111968C91813009F040E085
:10226000292FCF010E94C810DACF80E0D9CFCF93B9
:10227000C62F62EF6C0F6830A0F42C2F423051054E
:1022800069F441E00E94C8108EEF8C0F823120F477
:1022900060E08C2F0E94590581E004C040E00E945C
:1022A000C81080E0CF910895CF93DF93E09171043F
:1022B000F0917204A82FB0E050E040E0242FEA0132
:1022C0002E97AC17BD0731F04F5F5F4F4631510578
:1022D000A9F720E041E06130710509F040E0682F86
:1022E000CF01DF91CF910C94C810089508950895FF
:1022F000089562506C3030F484E00E9437028EE022
:102300000C94370208956250623130F48FE00E94DD
:10231000370280E40C94370208956A50643030F438
:102320008CE00E94370281E00C94370208950895F2
:10233000FC0101900020E9F73197AF01481B590BD0
:10234000BC018CE793E00C94E4030F931F93CF93AD
:10235000DF930E9484028091750490917604DC01E1
:10236000ED91FC910190F081E02D69E70995809154
:10237000750490917604DC01ED91FC910190F0815F
:10238000E02D60917904099580917504909176040F
:10239000DC01ED91FC910190F081E02D60917A04D7
:1023A0000995A0917704B0917804ED01099000207F
:1023B000E9F72197CA1BDB0B10E000E0C017D1073B
:1023C00079F0E0917704F0917804E00FF11F8081BB
:1023D000082E000C990B0E945D020F5F1F4FEECF7D
:1023E000DF91CF911F910F910C9444020F931F9393
:1023F000CF93DF9380917E048137A9F0893709F06C
:1024000053C080917904882309F45EC080917504DB
:1024100090917604892B09F457C0DF91CF911F91D9
:102420000F910C94A5110091FB041091FC0401156F
:10243000110509F449C02091BF043091C004C901BD
:10244000019797FDC90195958795482F8823E1F15C
:10245000A5E7B4E0CEE7D4E030E01A965C911A9795
:102460005993BE01615071091B962C911B972795BA
:1024700022272795250FFB0120833F5F12963417F3
:1024800060F39927DC01AB58BB4F18968C911897D5
:10249000882311F019961C928EE794E0F801DF91E1
:1024A000CF911F910F910994E091FD04F091FE04EA
:1024B000309751F06091BF0461504FE754E0DF91D5
:1024C000CF911F910F910994DF91CF911F910F919F
:1024D0000895EF92FF920F931F93CF93DF938C0198
:1024E0000E949B287C018091EE04811107C0C801E5
:1024F0000E94D2048CE192E00E9498110E94840212
:102500008091750490917604DC01ED91FC9101902D
:10251000F081E02D61E70995D0E0C0E0CE15DF0540
:102520004CF4F801EC0FFD1F849190E00E945D02D5
:102530002196F4CFDF91CF911F910F91FF90EF90F3
:102540000C9444028F929F92AF92BF92EF92FF92AF
:102550000F931F93CF93DF936D3709F05CC0423028
:1025600060F481E0DF91CF911F910F91FF90EF9088
:10257000BF90AF909F908F900895E901F42E8C0149
:102580008881811118C02981F801828193812817DF
:10259000190621F097FD0FC02F3769F4823091059D
:1025A000E1F0039719F481E00E9444068FEF9FEF5A
:1025B000F80193838283F4E0FF1598F68881E9801F
:1025C00022E0E21651F193E0E91639F1813049F643
:1025D00085EB92E00E946912C4CF80E0E5CFE3E092
:1025E000EE125DC025EF3CE0309303012093020121
:1025F00020916900237F880F991F880F991F822BD4
:1026000080936900E99A4BC08C179D0709F452C06A
:102610008FE892E0DFCF80E0A5CF813009F0A1CF35
:10262000FA808C81E0E88E9FC00111242B81822BDF
:102630004C01092E000CAA08BB08892B59F00E94F6
:102640000206F8016087718782879387848295826A
:10265000A682B782F80182819381CE2DD0E08F3F90
:10266000980791F6EEEFEF0D90E080E0E43038F45B
:10267000F0E0E65FFE4F8081082E000C990B22E00F
:10268000E212ADCF25EF3CE0309301012093000131
:10269000909169009C7F892B80936900E89AF801EA
:1026A000D383C28360E08E2D0E94590560E18E2D98
:1026B0000E941F02CE010E940E0653CF9A01A091E4
:1026C0006F04B0917004ED91FC9111970480F58135
:1026D000E02D462F682FCD010995811104C087E7B1
:1026E00092E00C9469120895CF93DF93EB01A091CF
:1026F0006F04B0917004ED91FC9111970280F38109
:10270000E02DAB01682FCD010995811109C0CF37AC
:10271000D10531F086E692E0DF91CF910C946912F9
:10272000DF91CF910895FC0112AE9FB7F89480918C
:102730004E02882319F0815080934E0280914E0200
:10274000811105C08CB58F7B8CBD10924D029FBF4F
:1027500080E392E00C946912FC0122AD21110C94EB
:1027600093130895DC0186EF860F843090F44C308B
:10277000510589F0DA968C91DA97882359F0E62F83
:10278000F0E0EF53FB4F80818C3019F4CD010E94B3
:10279000931380E0089581E008954F925F926F92C5
:1027A0007F928F929F92AF92BF92CF92DF92EF92E1
:1027B0000F931F93CF93DF936C01D62F5A01122FE3
:1027C0004F3F540709F492C081E08093580360930F
:1027D0007A031092590310927B03642F89E194E0ED
:1027E0000E94AF0A802F0E946709F601E45BFF4F49
:1027F000808191818230910538F0880F991F880F70
:10280000991F05970197F1F70E94AA052B013C013A
:102810008091520381116CC0C12F113208F0C0E2C7
:1028200081E080935203809351039FEF9093500374
:1028300010924F039C0F90934E0380932D03909121
:102840002D038D2F880F892B80932D0380912C03CE
:10285000813009F0A1C010922C030E94AA052B011F
:102860003C0180912D038093BB0080915403909193
:102870005503A0915603B0915703892B8A2B8B2BBC
:10288000A1F00E94AA052091540330915503409174
:10289000560350915703641975098609970926173D
:1028A00037074807590708F444C08091BC0083FDEE
:1028B000D8CF85EC8093BC000E94AA052B013C0177
:1028C00080915203813009F469C080914F038C17C5
:1028D00010F4C0914F03AEE2B3E0EFE4F2E080E029
:1028E0008C1761F19D9191938F5FFACFA12C8CCFC2
:1028F0008091540390915503A0915603B0915703D2
:10290000892B8A2B8B2B09F483CF0E94AA05209157
:102910005403309155034091560350915703641965
:10292000750986099709261737074807590708F0D8
:102930006FCF809153030E945109C0E01092700242
:10294000C0936F02212F30E08C2F90E028173907B9
:102950000CF046C08EED92E00E946912F601A2A62C
:102960003601FBE26F0E711C912C812CA12EB12C33
:102970008A149B04DCF590916F0280917002981785
:10298000A9F189E194E00E94680A9FEF891A990AE7
:10299000F30181933F01ECCF85EE8CCF80915403FE
:1029A00090915503A0915603B0915703892B8A2B20
:1029B0008B2B09F485CF0E94AA05209154033091F6
:1029C00055034091560350915703641975098609C0
:1029D0009709261737074807590708F071CFA9CF7D
:1029E000821793070CF0BACF1C2FB8CF0E94840235
:1029F00087E70E9437028D2F0E9437028E2D0E949A
:102A00003702E601AA96D12CC12C899190E00E9450
:102A10005D02FFEFCF1ADF0AAC14BD04B4F7DF91FB
:102A2000CF911F910F91EF90DF90CF90BF90AF901B
:102A30009F908F907F906F905F904F900C94440286
:102A4000CF92DF92EF92FF920F931F93CF93DF937A
:102A50006C012BE4C20ED11CF601208127FD28C099
:102A6000EC0110E085E0F82E812F90E0F601208146
:102A7000022E000C330B28173907D4F0F89EF00112
:102A8000F99EF00D1124EC0FFD1F0196F89ED00168
:102A9000F99EB00D1124AC0FBD1F43815481E12C70
:102AA00006812C916281CE010E94CD131F5FDCCF85
:102AB000DF91CF911F910F91FF90EF90DF90CF901A
:102AC0000895CF92DF92EF92FF920F931F93CF93CF
:102AD000DF93E42EE901663729F0683709F4FBC07B
:102AE00010E01CC0FC01E65BFF4F10811123B1F028
:102AF000398135FF05C08CE093E00E9469120EC059
:102B0000688141E036FB002700F90427232F287154
:102B1000283009F43EC060F42223C9F0812FDF91F0
:102B2000CF911F910F91FF90EF90DF90CF9008957C
:102B3000203109F44BC0283189F7EC01C55BDF4F28
:102B4000388113160CF481C08FEF8883E7CF409350
:102B5000580360937A031092590310927B0302E0AA
:102B60000E1578F4FE01E00FF11D6181679566276F
:102B700067958081680F89E194E00E94AF0A0E5F3B
:102B8000EFCF81E00E94670983E191E00197F1F7BF
:102B9000C5CF7A812B8146E0E41211C0A0E82A9FBC
:102BA000A0011124470F511D2D812795222727951C
:102BB0007C81270F3770E32E0E94CD13AFCF27956E
:102BC00022272795270F4FEF5FEFF4CFFC01E55B3E
:102BD000FF4F408147301CF08BEF92E08ECFAA81EF
:102BE0003B81B6E0EB122AC050E8359F90011124DA
:102BF000A20FB32FB11D3D813795332737952C8117
:102C0000320F4F5F4083042E000C550B25E0249FAC
:102C1000F001259FF00D1124E80FF91F6283B483A2
:102C2000A3834F5F5F4F249FB001259F700D112438
:102C3000860F971FDC013C93068370CF37953327AF
:102C400037953A0FAFEFBFEFDCCF20E0E32E032E36
:102C5000000CFF0875E0422F50E0E416F50664F022
:102C6000749FF001759FF00D1124E80FF91F428148
:102C7000641719F02F5FEFCF20E045E0622F70E07E
:102C8000E616F7062CF1283008F5FB0131964E9F29
:102C9000D0014F9FB00D1124A80FB91F12965C915F
:102CA0001297469FF001479FF00D11246F01C80E47
:102CB000D91EF601528313966D917C9114977483FB
:102CC00063835285558316965C9156832F5FD6CFCA
:102CD0003150388323CF2981B0E82B9FA0011124E4
:102CE0002881240F352F311D2115310529F0FC01D4
:102CF000E45BFF4F318320838C01065B1F4FF8019B
:102D00008081811133C0D0E0C0E08C2F82518230AD
:102D100070F4FE01EF53FB4F80818F3739F166E08D
:102D20008C2F0E941F0266E08C2F0E94590521966D
:102D3000C631D10551F781E0D8018C930E94260954
:102D40001092700210926F021092590310927B033E
:102D50000E94330987E59AE0909393028093920250
:102D600088E59AE09093970280939602F80110818B
:102D7000D5CECF9343305105D1F4633041F08BEF82
:102D8000860F823020F087EF860F833080F4C62FC5
:102D900061E08C2F0E94590561E08C2F0E9459053B
:102DA00060E08C2F0E940D0581E0CF91089580E0B6
:102DB000FCCF0C94C22B0C94C22B1F93CF93DF93A8
:102DC000EC0118E0612FCE010E94E20A009711F099
:102DD0000E94C22B1F5F1C30A9F78FEF8AA3FE0150
:102DE0003A96CE018396DE01AD5ABF4FAE014E5DDD
:102DF0005F4F11921192EC01199219921992199246
:102E0000CE011D929F012D5A3F4FE9011982188270
:102E1000E417F50771F7DF91CF911F9108950C9496
:102E2000C22B0C94C22B0C94C22B0C94C22B0C946E
:102E3000C22B0C94C22B0C94C22B0C94C22B0C945E
:102E4000C22B0C94C22BCF93DF93C62FD0E0CC0FB4
:102E5000DD1FC80FD91FBA91AA911097A1F0EC916C
:102E60002E2F30E0F901EE0FFF1FE20FF31FE150AC
:102E7000FD4F908196FF02C09F7B9083CD010E9401
:102E8000C22B19821882DF91CF9108950F931F935F
:102E9000CF938C01C0E08EEF8C0F8C3020F46C2F20
:102EA000C8010E942317CF5FC631A9F7CF911F91A8
:102EB0000F910895CF93DF93FC012281222341F0EB
:102EC000EC01858196810E94C22B1E821D821A828E
:102ED000DF91CF910895CF93DF93EC01625062317F
:102EE00070F481E04F30510559F08A81882341F018
:102EF0008D819E810E94C22B1E821D821A8280E0DB
:102F0000DF91CF9108954F925F926F927F928F924F
:102F10009F92AF92BF92CF92DF92EF92FF920F9368
:102F20001F93CF93DF93CDB7DEB7A1970FB6F89479
:102F3000DEBF0FBECDBF7C015A016B010E949B28F2
:102F40004C018091EE04811126C0C7010E94D20479
:102F500019A29501A6018E010F5D1F4F8AE0482E30
:102F6000512C612C712CCA01B901A30192010E945C
:102F7000D129605DD8016E938D0121153105410580
:102F8000510589F7109719F0CD010E9498118CE135
:102F900092E00E9498110E948402809175049091A1
:102FA0007604DC01ED91FC910190F081E02D61E768
:102FB000099510E000E00815190554F4F701E00F39
:102FC000F11F849190E00E945D020F5F1F4FF3CFCD
:102FD00020E1FE0131964F01AF01B501C6010E940B
:102FE000A428F40101900020E9F731977F01E81847
:102FF000F908B7016F5F7F4F90E080E00E944B2C93
:103000008C010097C9F0DC011C92B4010E94182DBC
:10301000D12CC12CCE14DF0491F080E001151105F4
:1030200021F0F801EC0DFD1D808190E00E945D0211
:10303000BFEFCB1ADB0AEECFF12CE12CE9CF0E94D7
:10304000440201151105C9F0C801A1960FB6F89404
:10305000DEBF0FBECDBFDF91CF911F910F91FF90CB
:10306000EF90DF90CF90BF90AF909F908F907F9028
:103070006F905F904F900C94C22BA1960FB6F8946E
:10308000DEBF0FBECDBFDF91CF911F910F91FF909B
:10309000EF90DF90CF90BF90AF909F908F907F90F8
:1030A0006F905F904F9008952F923F924F925F9252
:1030B0006F927F928F929F92AF92BF92CF92DF9248
:1030C000EF92FF920F931F93CF93DF93CDB7DEB7AD
:1030D000C754D1090FB6F894DEBF0FBECDBF4C0167
:1030E0006A01DC01DA968C9181111EC08FE192E0B9
:1030F0000E946912C95BDF4F0FB6F894DEBF0FBEA6
:10310000CDBFDF91CF911F910F91FF90EF90DF9096
:10311000CF90BF90AF909F908F907F906F905F9077
:103120004F903F902F9008952223D9F06430D8F02B
:10313000F6014081F401B12CA12C8281481709F4D9
:1031400027C13FEFA31AB30A379688E0A816B10447
:10315000A1F750E070E060E085ED91E00E948317F8
:10316000C9CF663028F780E092E0C2CF87E08A9D21
:10317000F0018B9DF00D1124E80DF91D9581911141
:1031800016C0F6019E012F5F3F4FD90194E07D01EB
:10319000E21AF30A3296961708F008C183818795E0
:1031A000882787954281840F8D939E5FF0CF64506E
:1031B000770B869F7001879FF00C112463E0F594D4
:1031C000E7946A95E1F7B1E4EB16F1041CF08AEAA2
:1031D00091E08ECF1601E4E02E0E311C9E012F5F90
:1031E0003F4F2901F90130E020E057E0652E712CB6
:1031F000CF01841995098E159F050CF0D7C0C90120
:10320000B3010E94F82AD101A60FB71F11966C9145
:103210001197A301481B590B01C0660F4A95EAF7A5
:103220004C9150E002C0559547958A95E2F7642B82
:103230006193285F3F4FDCCF80934C020DC1F701B3
:103240003197E80FF91F0DB407FEFDCF8EB58083CF
:1032500080914D02882359F09FB7F89420914D0238
:1032600080914C02213009F05BC08DBB9FBFF601FD
:103270008281882361F087E08A9DF0018B9DF00DAB
:103280001124E80DF91D61E084810E940D050130D3
:10329000110509F02FCF0E94840288E60E943702B0
:1032A00085E00E943702D6018C910E943702F60118
:1032B00081810E9437028E2D0E94370227E02A9DCD
:1032C000C0012B9D900D1124880E991ED4011596D6
:1032D0008C91FE0131965F018F01882309F44BC068
:1032E0004F0110E000E0512C48E0642E712CC40125
:1032F0008A199B098E159F05B4F5D4018D914D0156
:10330000C82ED12C0115110569F48F770E94370260
:10331000CC0CCD2CCC1CDD085C2C01E010E0E7CF00
:103320008FBFA5CFC601002E01C0880F0A94EAF70F
:103330008F7785290E9437020630110541F4C601B6
:10334000959587950E94370210E000E0D0CF0F5F7F
:103350001F4FC301801B910B02C0D594C7948A955F
:10336000E2F75C2CC4CF012B19F0852D0E943702A7
:103370000E944402BFCEC8018A199B098E159F0581
:10338000BCF7F80181918F0190E00E945D02F3CFBC
:10339000222309F4EBCED6011396EC90F12CA70171
:1033A00070E060E0CE0101960E94112D02301105FF
:1033B00069F580EF22968FAF229788E623968FAF2C
:1033C000239785E024968FAF2497D6018C9125967C
:1033D0008FAF259711968C9126968FAF26972796BB
:1033E0001FAE279787EF28968FAF28978091750497
:1033F00090917604DC01ED91FC910280F381E02D47
:1034000047E050E0BE016F5B7F4F099587E08A9DE2
:1034100030018B9D700C1124F401E60DF71D60E066
:1034200084810E940D05B6E06B0E711CF401E60D5F
:10343000F71D2081918180914D02882369F08FB71B
:10344000F89430914D02313009F0F6CE3DB330930F
:103450004C023DB33DBB8FBF2CBD9DBDE114F104BB
:1034600009F4F6CE89818EBDFE0131969701CF0118
:103470002150310909F4E3CE51810DB407FEFDCF8F
:103480004EB55EBD4193F4CFCF93DF93CDB7DEB79A
:10349000DF91CF910895CF92DF92EF92FF920F9339
:1034A0001F93CF93DF93683649F4D901F42EEC01D2
:1034B000411106C088E690E00E94691280E025C0B4
:1034C000A9014F5F5F4FFA948C91883008F083C157
:1034D000E82FF0E0E259F54E0C940C2B761AED1A19
:1034E000E81BE11BD91BEB1BD51BE51B8AAD81112A
:1034F0000CC051E0F51204C011968C91882371F034
:1035000085EB90E00E94691281E0DF91CF911F91DD
:103510000F91FF90EF90DF90CF9008958091CD04B0
:103520008F3781F16CE08CE00E941F0260E08CE03C
:103530000E9459058091CC048F3721F16CE08BE01B
:103540000E941F0261E08BE00E9459058091CE0429
:103550008F37C1F06CE08DE00E941F0261E08DE0CA
:103560000E945905FAAECFB7F89480914E02882395
:1035700061F080914E028F5F80934E02CFBF89EA47
:1035800090E0C0CF81E990E0BDCFEAECF3E0849118
:10359000EEEDF3E09491E82FF0E0EE0FFF1FE65B15
:1035A000FC4FA591B491EC91E92321F461E08AE00C
:1035B0000E940D0561E08AE00E9459058CB580618A
:1035C0008CBD8CB580648CBD61E08DE00E94590596
:1035D00061E08BE00E945905CCCF89E08F1518F08F
:1035E00087E691E08FCF11964C9111977E01BE0135
:1035F0002FEF3FEF90E080E0FB015281541301C0B8
:103600009C010196695F7F4F88309105A9F72F3F94
:103610003207A1F490E080E0F7015085511101C01C
:103620009C010196F7E0EF0EF11C88309105A1F79F
:1036300085E391E02F3F320709F464CF18968C910F
:103640001897877F19F087E091E05CCF842F837013
:1036500041F050E070E060E089ED90E00E94831757
:1036600053CF87E0829FF001839FF00D1124EC0F70
:10367000FD1F428312968C911297182F117083FBB5
:10368000882780F9858313968C9113971496CC9094
:103690001497D12CF12CE12C47E0CC0CDD1CEE1C56
:1036A000FF1C4A95D1F715964C91159750E070E0A4
:1036B00060E00EE0440F551F661F771F0A95D1F793
:1036C000C42AD52AE62AF72AC82A16964C911697B4
:1036D00050E070E060E085E1440F551F661F771FE2
:1036E0008A95D1F7C42AD52AE62AF72A17968C910B
:1036F0001797482F50E070E060E09CE1440F551FA1
:10370000661F771F9A95D1F74C295D296E297F296D
:1037100019968C91199783831A968C91848381E0F2
:103720008087411551056105710521F440E45BE492
:103730006CE470E0C12C92E1D92E9AE7E92EF12CCD
:1037400090E04C155D056E057F0540F4F694E79416
:10375000D794C7949F5F9630A1F797E081E08927BF
:1037600060E5111101C060E777E0729FA001739FCF
:10377000500D1124FA013696EC0FFD1F8695862B0D
:103780008083909591709183C40FD51F8B8180FDAC
:1037900003C08FEF8C83B8CE61E08C810E941F0242
:1037A00061E08C810E945905AFCECE010E94931337
:1037B000ABCE01E010E021E06F2DCE010E94541845
:1037C000A3CE10E000E020E0F7CF02E010E0FBCF56
:1037D00001E010E0F8CF482F50E070E060E084E9AD
:1037E00091E03CCF85ED8093BC0080915403909193
:1037F0005503A0915603B09157030796A11DB11D23
:1038000023E0B695A795979587952A95D1F72091AE
:10381000BC0024FD03C0109252030895409154034C
:10382000509155036091560370915703452B462BD9
:10383000472B69F30097A105B10541F02AE22A95CB
:10384000F1F700C00197A109B109E1CF80915303BD
:103850000C945109CF92DF92EF92FF920F931F9336
:10386000CF93DF937A016901C62FD0E08E01000F5C
:10387000111F080F191FD8019E918E918D0100977D
:10388000E9F483E090E00E94262B2091FD022C3089
:10389000D0F531E0320F3093FD02FC01208330E09F
:1038A000F901EE0FFF1FE20FF31FE150FD4F28EB70
:1038B0003BE032832183F80191838083DC01EC912A
:1038C0002E2F30E0F901EE0FFF1FE20FF31FE15042
:1038D000FD4F208126FF02C02F7B2083F7FE06C00C
:1038E00020E639E040E252E0D7FC02C09601A70191
:1038F000BE01DF91CF911F910F91FF90EF90DF906C
:10390000CF900C9458062FEFDC012C93D4CFCF929C
:10391000DF92EF92FF920F931F93CF936037B1F531
:103920004530A0F1F901C0814EEF4C0F4C3070F5DD
:10393000EC2FF0E0EF53FB4F40814F3739F1F901A5
:103940008C01E28020E8E29EC0011124E180E80EB3
:10395000F92EF11CC48020E8C29EC0011124C3804E
:10396000C80ED92ED11C64E08C2F0E941F02960134
:10397000A7016C2FC8010E942A1C81E0CF911F91E2
:103980000F91FF90EF90DF90CF90089580E0F6CFF9
:103990002EEF260F2C3068F44430510541F42FEF00
:1039A0003FEF4FEF5FEF0E942A1C81E008950E94D5
:1039B000231780E008957F928F929F92AF92BF92DB
:1039C000CF92DF92EF92FF920F931F93CF93DF93EB
:1039D000EC01D901603609F0BBC08C91182F1F7023
:1039E0001C3008F0B5C0807F803309F493C15901C1
:1039F000042F813338F48031A1F1803209F46CC195
:103A000081E0A7C0803609F4E3C1803709F4EFC133
:103A10008035B1F7612FCE010E94E20AEC010097D8
:103A200079F3183008F0CEC1E881F9810680F7817A
:103A3000E02D0995EA89FB8980818F7E8083EA8960
:103A4000FB898081877F8083EA89FB8980818F77EA
:103A50008083EA89FB8980818F7D80838A8D898F2D
:103A6000CFCFD9011296CC901297D12CF12CE12C0A
:103A7000E7E0CC0CDD1CEE1CFF1CEA95D1F7139699
:103A80008C9190E0B0E0A0E0FEE0880F991FAA1FA3
:103A9000BB1FFA95D1F78C299D29AE29BF29F901C1
:103AA00021816C017D01C22A812F90E0FC01EE0F83
:103AB000FF1FEC0FFD1FE15AFF4F11821082FC0126
:103AC000EE0FFF1FEE0FFF1FEC0FFD1F13A214A23E
:103AD00015A216A28C0F9D1FFC01ED5AFF4F1082FC
:103AE000183060F4612FCE010E94E20A009709F4B9
:103AF00087CFB701A6010E94B40282CF453020F1E2
:103B0000D50114960C91149715967C901A3009F4EF
:103B1000C6C01B3009F4C8C0193049F55E01B9E7C9
:103B2000AB0EB11CF50180819181892BA9F58FE144
:103B300090E00E94262B4C01472D602F0E94B1235C
:103B4000D5018D929C9228C08CE293E00E9469126C
:103B500080E0DF91CF911F910F91FF90EF90DF9068
:103B6000CF90BF90AF909F908F907F9008954E011F
:103B7000B7E78B0E911CF40180819181892B61F450
:103B80008FE190E00E94262B5C01472D602F0E9460
:103B9000B123D401AD92BC92612FCE010E94E20A02
:103BA000EC01892B09F42CCF6AE0802F0E941F02C0
:103BB0006AE0872D0E941F021B8E1A8E198E188EA6
:103BC0001F8A1E8A60E079E08DE390E0A7019601EC
:103BD0000E94F329F901C90103972430310510F43B
:103BE00081E090E09D8F8C8F6C85663108F053C02A
:103BF000C901969587958431910508F45AC0439779
:103C00009F8B8E8BC9010597369710F481E090E069
:103C1000998F888FC901880F991F280F391F3695F2
:103C20002795369527952D30310508F445C02C5041
:103C300031093B8F2A8F9091680084E0683048F00A
:103C400021E06E3008F420E081E001C0880F2A9561
:103C5000EAF7892B809368009C852DE630E0983048
:103C600050F02BE630E09E3030F02CE630E096311C
:103C700010F030E020E03C8B2B8B292F30E0983087
:103C8000F0F481E001C0880F9A95EAF78D8B8C8D56
:103C90009D8D0197F1F7CE010E94D608B1CE5E014D
:103CA000BBE7AB0EB11C3ECF5E01BDE7AB0EB11C56
:103CB00039CF81E090E0A4CF21E030E0BACF9E3050
:103CC00040F42850310981E001C0880F2A95EAF7B5
:103CD000DDCF2E503109F7CF612FCE010E94E20ACD
:103CE0007C01892B09F48CCEE50111E0101708F056
:103CF00087CE6A816795662767958981680FD701A6
:103D0000ED91FC910190F081E02DC70109951E5FB6
:103D10002296ECCF11968C911197811126C03AA171
:103D200037300CF06DCE812F90E00596880F991FEB
:103D3000FE01E80FF91F4330A8F013968C911397FA
:103D400020E8829FC001112412962C91822B91832E
:103D5000808381E0830F8AA3C80FD11D87FDDA9588
:103D60001A834ECE11821082F4CF813009F048CEF2
:103D70009AA119161CF08FEF8AA342CE80E0492F3A
:103D8000092E000C550B282F30E04217530774F40E
:103D900080E0E82FF0E04E175F078CF0883020F4C9
:103DA000EC0FFD1F238122838F5FF3CF2C0F3D1F6C
:103DB000D90112962C91121761F38F5FE4CF9150C5
:103DC0009AA31ECE0E94C008CE010E94C22B18CE1C
:103DD000612FCE010E94E20A009709F411CEDC01A6
:103DE000ED91FC910680F781E02D099509CE183000
:103DF00008F406CE612FCE010E94E20A009709F076
:103E00004BCFFECD8F929F92AF92BF92CF92DF9217
:103E1000EF92FF920F931F93CF93DF93643741F498
:103E2000F901EC01423030F48AE392E00E94691219
:103E300080E00CC0E08083E0E81215C08D819E8197
:103E40000E94C22B1E821D821A8281E0DF91CF91D7
:103E50001F910F91FF90EF90DF90CF90BF90AF90A8
:103E60009F908F900895A1E0EA1631F0B2E0EB1236
:103E700005C056E1E52E02C06BE0E62EF1800F2D65
:103E800010E08A8181114FC01C830B8381E08A83FB
:103E900083E190E00E94262B6C01FC01F582E68212
:103EA000F801EC52FC4FE491DC011796EC93179764
:103EB000F801E054FC4FE4911896EC9380E89EE3FF
:103EC000A0E0B0E0F60185879687A787B08BDE82F9
:103ED000CD8262E08F2D0E9459050E940206605D2E
:103EE000774081099109D60119966D937D938D9341
:103EF0009C931C9787E352968C930D811E81C80179
:103F00000E941107882351F0F80186818B3030F030
:103F10008D3098F08551823008F446C060E070E042
:103F200080EC9FE725C08B819C818017910729F346
:103F30008D819E810E94C22BABCF618170E090E0A9
:103F400080E00E94D8282DEC3CEC4CEC5DE30E9414
:103F500013294B015C01F801608170E090E080E082
:103F60000E94D8289B01AC01C501B4010E944A2AD5
:103F70000E94B62A2AE0269F8001279F100D112457
:103F80000D80DE81C02DCE010E941107882339F0FB
:103F90008E818C3009F484C0B8F48B3061F160E01C
:103FA00070E080EC9FE74DC06081718176276727C4
:103FB000762790E080E00E94D6282DEC3CEC4CEC7B
:103FC0005DE30E941329D4CF8551823040F7EA8007
:103FD0006E2D70E0762F662766277F778B81682BA2
:103FE00090E080E00E94D6282DEC3CEC4CEC5DE3A8
:103FF0000E9413296FC06A8170E090E080E00E9407
:10400000D6284B015C01CB81C7FF0AC0AC019B01E4
:1040100060E070E080E89FEB0E94492A4B015C0160
:10402000CF706C2F70E090E080E00E94D8282DECDB
:104030003CEC4CEC5DE30E941329A50194010E9425
:104040004A2A20E030E040E251E40E9413290E9415
:10405000B62A4B010E94840284E70E94370280E066
:104060000E9437028F2D0E943702882D8F770E9481
:104070003702C401880F892F881F990B8F770E9400
:104080003702802F8F770E943702C801880F892F4F
:10409000881F990B8F770E9437020E944402D5CE69
:1040A000EA806E2D70E090E080E00E94D6284B01FF
:1040B0005C016B816F7070E090E080E00E94D82816
:1040C0002DEC3CEC4CEC5DE30E941329A50194011E
:1040D0000E944A2AE7FEB5CF9058B3CF1F920F92A5
:1040E0000FB60F9211242F933F934F935F936F93CB
:1040F0007F938F939F93AF93BF93EF93FF938CE73F
:1041000093E00E946304FF91EF91BF91AF919F9163
:104110008F917F916F915F914F913F912F910F9070
:104120000FBE0F901F9018951F920F920FB60F920F
:1041300011242F938F939F93EF93FF93E0918C0320
:10414000F0918D038081E0919203F091930382FDC1
:104150001BC09081809195038F5F8F732091960390
:10416000821741F0E0919503F0E0E458FC4F958F01
:1041700080939503FF91EF919F918F912F910F90D5
:104180000FBE0F901F9018958081F4CF1F920F9251
:104190000FB60F9211242F933F938F939F93AF935A
:1041A000BF938091240390912503A0912603B091A1
:1041B00027033091230323E0230F2D3758F5019671
:1041C000A11DB11D20932303809324039093250305
:1041D000A0932603B093270380912803909129038D
:1041E000A0912A03B0912B030196A11DB11D8093CC
:1041F000280390932903A0932A03B0932B03BF9124
:10420000AF919F918F913F912F910F900FBE0F9083
:104210001F90189526E8230F0296A11DB11DD2CF3D
:104220001F920F920FB60F9211242F933F934F932B
:104230005F936F937F938F939F93AF93BF93EF930E
:10424000FF93E0910201F09103010995FF91EF9135
:10425000BF91AF919F918F917F916F915F914F919E
:104260003F912F910F900FBE0F901F9018951F92A6
:104270000F920FB60F9211242F933F934F935F939A
:104280006F937F938F939F93AF93BF93EF93FF931E
:10429000E0910001F09101010995FF91EF91BF912B
:1042A000AF919F918F917F916F915F914F913F91CE
:1042B0002F910F900FBE0F901F9018951F920F9285
:1042C0000FB60F9211242F933F934F935F936F93E9
:1042D0007F938F939F93AF93BF93CF93DF93EF938E
:1042E000FF938091FE02C091FD02D0E087FF24C0C1
:1042F00010928500109284008091FE028F5F80935F
:10430000FE028091FE02082E000C990B8C179D076F
:1043100024F48091FE028C30C4F18091840090914D
:104320008500049680349C4908F47AC0809184000A
:1043300090918500049676C08091FE02082E000CB4
:10434000990B8C179D07C4F6E091FE028E2FEE0F9D
:10435000990BFC01EE0FFF1FE80FF91FE150FD4F15
:10436000808186FFC9CFE091FE028E2FEE0F990B60
:10437000FC01EE0FFF1FE80FF91FE150FD4F808198
:1043800060E08F730E940D05B7CF209184003091BB
:104390008500E091FE028E2FEE0F990BFC01EE0FCF
:1043A000FF1FE80FF91FE150FD4F81819281820FBD
:1043B000931F9093890080938800E091FE028E2FD6
:1043C000EE0F990BFC01EE0FFF1FE80FF91FE150F4
:1043D000FD4F808186FF11C0E091FE028E2FEE0F0F
:1043E000990BFC01EE0FFF1FE80FF91FE150FD4F85
:1043F000808161E08F730E940D05FF91EF91DF9145
:10440000CF91BF91AF919F918F917F916F915F916C
:104410004F913F912F910F900FBE0F901F901895C5
:1044200080E49CE990938900809388008FEF8093CB
:10443000FE02E3CF1F920F920FB60F9211242F931B
:104440003F934F935F936F937F938F939F93AF931C
:10445000BF93EF93FF93E091FB02F091FC02309742
:1044600049F0A685B7858585968D91FF14C09C91EE
:104470008923A1F4FF91EF91BF91AF919F918F910B
:104480007F916F915F914F913F912F910F900FBE50
:104490000F901F9018959C91892361F7A389B48987
:1044A0009C918589809589238C938689978901972A
:1044B000F1F7608D718DA685B785558538E020E0D0
:1044C000CB010197F1F7822F90E095958795282FE2
:1044D0004C91452309F02068315091F7868D81FD7C
:1044E00020958091F90290E001968F739927309181
:1044F000FA02381799F0A091F902B0E0A754BD4F25
:104500002C938093F902828D938D0197F1F7A38903
:10451000B4898C919589892B8C93ACCF868D8160E1
:10452000868FF1CF1F920F920FB60F9211242F9307
:104530003F934F935F936F937F938F939F93AF932B
:10454000BF93EF93FF938091B900887F803609F481
:104550004AC0F0F5883209F4A7C018F5803109F493
:104560009BC0B8F4882309F4F9C0883009F494C0DA
:10457000FF91EF91BF91AF919F918F917F916F913B
:104580005F914F913F912F910F900FBE0F901F9011
:104590001895883109F488C0803251F78093500310
:1045A00014C0803409F49DC040F48033B9F38833DB
:1045B000F9F68093500385ECB0C0803509F485C0CE
:1045C000883509F496C0883499F60E94F21BD0CF42
:1045D000883909F48CC038F5883729F050F48836CA
:1045E00011F0803729F683E0809352031092B802CD
:1045F00057C0883809F47BC0803919F0803809F039
:10460000B7CF8091B802803208F071C0E091B80253
:1046100081E08E0F8093B8028091BB00F0E0E856F5
:10462000FD4F80833DC0803B39F0E0F4803A09F4CF
:1046300079C0883A09F09CCF84E0809352031092AD
:10464000950210929402E0919202F09193020995E2
:104650008091940281110FC081E0809394021092A6
:10466000720209C0803C09F4A6CF883C09F4A3CFAC
:10467000883B09F07DCFE091950281E08E0F809319
:104680009502F0E0EE58FD4F80818093BB00909141
:1046900095028091940229C080912D038093BB00E4
:1046A00085EC8093BC0064CF90914F0380914E03C2
:1046B000981758F5E0914F0381E08E0F80934F03D8
:1046C000F0E0E25DFC4F8081E9CFE0914F0381E0B3
:1046D0008E0F80934F038091BB00F0E0E25DFC4FB2
:1046E000808390914F0380914E039817C8F285E81C
:1046F000D8CFE0914F0381E08E0F80934F038091DC
:10470000BB00F0E0E25DFC4F80838091510381119A
:104710005CCF81E080932C0384EA8093BC001092EC
:10472000520326CF85EC8093BC00109252038091F7
:10473000B802803230F4E091B802F0E0E856FD4F64
:1047400010826091B80270E0E0919602F0919702B9
:1047500088E992E009951092B8020ACF10925003AE
:1047600034CF0F931F93CF93DF93EC01162F042FB9
:104770001B821A8288EE93E0A0E0B0E08C839D83D8
:10478000AE83BF8382E191E0998388831F8A1E8A6A
:10479000198E188E1B8E1A8E1D8E1C8E6E8D6E7F3E
:1047A0006D7F6E8F6695617081E06827842F0E940F
:1047B0000D0561E0802F0E945905802F90E0FC01DB
:1047C000EC52FC4FE491E88BFC01E054FC4FE49187
:1047D000F0E0EE0FFF1FEA54FC4F859194919A8B05
:1047E000898B60E0812F0E9459058E8D81FD04C068
:1047F00061E0812F0E940D051C87812F90E0FC0154
:10480000EC52FC4FE491ED87FC01E054FC4FE49145
:10481000F0E0EE0FFF1FE455FC4F859194919F87C8
:104820008E87DF91CF911F910F91089510927F0392
:1048300010927E0388EE93E0A0E0B0E080938003C6
:1048400090938103A0938203B093830324E231E029
:1048500030937D0320937C0325EC30E03093890373
:104860002093880324EC30E030938B0320938A0359
:1048700020EC30E030938D0320938C0321EC30E06A
:1048800030938F0320938E0322EC30E0309391031A
:104890002093900326EC30E030939303209392030F
:1048A000109295031092960310929703109298031A
:1048B00010921C0410921B0480931D0490931E04FC
:1048C000A0931F04B093200486E391E090931A0410
:1048D0008093190410927A04109279048EE192E088
:1048E0009093780480937704109201050E9424032A
:1048F00010922B0410922C0410922D0410922E046E
:1049000010922F041092300410923104109232044D
:10491000109233041092340410923504109236042D
:1049200010923704109238041092390410923A040D
:104930008AEE91E090937B0680937A06109282062D
:1049400010927F0610927C061092830610928006C9
:1049500010927D06109284061092810610927E06B7
:104960008AE796E090930305809302058FEB9FE022
:104970009093F4048093F30488ED91E0909379068A
:104980008093780688E796E090937404809373048C
:1049900087E99EE09093F0048093EF048CE79EE01B
:1049A0009093F8048093F70486EC91E09093750659
:1049B0008093740684E796E0909372048093710468
:1049C000109277061092760684E591E19093F204B6
:1049D0008093F10484EB91E09093730680937206C8
:1049E00082EA91E0909325068093240610926E0649
:1049F0008FEF80936F061092710610927006EEE4AE
:104A0000F6E080E2DF011D928A95E9F780E991E006
:104A10009093EA058093E905EBEEF5E0A9EEB5E0A9
:104A200090E58FEF94831582108211828283138226
:104A30001682379626E0E332F207A1F7109223069A
:104A40008FEF12968C93129714968C931497189656
:104A50001C92189715961C921597179696E0A132FE
:104A6000B90779F72EE731E030936B0520936A059B
:104A70001092E2051092E1051092E4051092E30510
:104A80001092E6051092E5051092E8051092E705F0
:104A900080938C058AE695E00E94DD168EE092E018
:104AA0009093640580936305109265058FEF9FEFE7
:104AB00090936705809366058CE691E090933705A7
:104AC0008093360586E395E09093700480936F049D
:104AD00084E793E19093F6048093F5048EE593E1E7
:104AE0009093FE048093FD04E8E3F5E011921192A7
:104AF000A5E0E236FA07D1F7109262058CEF91E05B
:104B000090931D0580931C058AE591E09093110513
:104B1000809310051092120510921305109214053F
:104B2000109215051092160510921705109218058F
:104B30001092190581E090E090931B0580931A056F
:104B400088E491E090930505809304058FEF9FEF33
:104B500090930705809306051092080510920905A9
:104B600010920A0510920B0510926B0410926C04BF
:104B700010926D0410926E040E94020660930C0560
:104B800070930D0580930E0590930F05089578940A
:104B900084B5826084BD84B5816084BD85B5826042
:104BA00085BD85B5816085BD80916E0081608093F3
:104BB0006E0010928100809181008260809381005C
:104BC000809181008160809381008091800081606C
:104BD000809380008091B10084608093B1008091C7
:104BE000B00081608093B00080917A0084608093EF
:104BF0007A0080917A00826080937A0080917A00B6
:104C0000816080937A0080917A00806880937A0036
:104C10001092C10010926704109268041092690407
:104C200010926A041092270410922804109229040A
:104C300010922A040E9402066B017C014B015C0168
:104C400028EB820E2BE0921EA11CB11C0E940206D2
:104C50006C157D058E059F0528F086169706A8061B
:104C6000B906A0F768EE73E080E090E00E94CF05FF
:104C700040E052EC61E070E08CE793E00E94B40207
:104C80000E940206609327047093280480932904ED
:104C900090932A048FE192E00E9498110E940206EC
:104CA0006B017C014B015C018AE0880E911CA11C08
:104CB000B11C0E9402066C157D058E059F0528F02B
:104CC00086169706A806B906A0F7C1E0C0933B0474
:104CD0000E9402066093270470932804809329049D
:104CE00090932A0480E392E00E94981187E392E077
:104CF000909378048093770483E080937904C09341
:104D00007A0440E052EC61E070E08CE793E00E94AE
:104D1000B4021092800310928103109282031092C9
:104D200083038CE793E09093760480937504C0939B
:104D3000EE048091010581113BC061E08DE00E948D
:104D40005905C3E062ED70E080E090E00E94CF057D
:104D500061E08DE00E940D0568E270E080E090E087
:104D60000E94CF0560E08DE00E940D05C15051F713
:104D70006AEF70E080E090E00E94CF0562ED70E0A5
:104D800080E090E00E94CF0561E08DE00E940D057B
:104D900068E270E080E090E00E94CF0560E08DE086
:104DA0000E940D056DE770E080E090E00E94CF0565
:104DB0000E94900280917904882341F080917504CB
:104DC00090917604892B11F00E94A51188E693E05A
:104DD0000E9469128AE796E00E94140388E796E031
:104DE0000E94140384E796E00E94140382E796E091
:104DF0000E9414038CE195E00E94140384E296E083
:104E00000E9414038AE695E00E94140380E195E075
:104E10000E94140389EE95E00E94140383E695E056
:104E20000E94140384E095E00E9414038CE79DE047
:104E30009093FA048093F9041092BE041092C00477
:104E40001092BF0410927B040E942403C0E0D0E0C3
:104E5000FF24F39482E0E82E9FE6D92E27EFC22E9E
:104E600004E010E08091750490917604DC01ED91EE
:104E7000FC910084F185E02D0995892B91F50E9424
:104E800002066093120570931305809314059093A6
:104E900015058090160590901705A0901805B09004
:104EA000190540901A0550901B05712C612C9B012F
:104EB000AC01281939094A095B09421653066406F0
:104EC000750608F412C160E086E395E00E94380D93
:104ED000209741F20E944F04882321F20E94000093
:104EE000C1CF8091750490917604DC01ED91FC9125
:104EF0000284F385E02D09958F3F9807C1F0382F84
:104F00008F3F59F41092BE041092C0041092BF0457
:104F100010927B040E9424030AC02091BE04222325
:104F200071F1873F71F41092BE040E94F6118091D6
:104F30007B04811197CF8091BE04882309F49FCF11
:104F400091CF2091BF043091C004F901EB58FB4F81
:104F500081872F5F3F4F3093C0042093BF042034DC
:104F6000310529F784E893E00E9469121092BE048B
:104F70001092C0041092BF0410927B04D8CF2091ED
:104F80007B04222309F472C087FD70C09FEF920F4B
:104F900090937B04E92FF0E0EB58FB4F8187911150
:104FA00061CF80917C04882331F2803D09F453C0A5
:104FB00060F4803939F1E091F104F091F204803C21
:104FC00009F44DC010927C04B2CF843F79F1853F43
:104FD000A1F1803EB9F780917E0490917F04D09238
:104FE0007E0420917D0420937F049093800480931D
:104FF0008104C09282041093C0040093BF040E94F5
:10500000F611E0CFE091EF04F091F0043097D1F287
:1050100060917E0420E8629FC001112460917F04AA
:10502000680F792F711D80917D0413C060917E04FB
:1050300080917F040E941F02C5CFE091F704F09198
:10504000F80460917E0470E080917F04309709F449
:10505000B9CF0995B7CFE091F304F091F4043097FC
:1050600009F4B0CF60917E0470E0DDCF303FB8F43A
:10507000282F207F30E08F7080937D04203F310502
:1050800051F1BCF4203C310519F164F420393105AB
:1050900009F04DCFE0927B0420937C0448CF9C0123
:1050A0003327ECCF203D310599F0203E310591F3B7
:1050B0003ECF293F3105B1F034F4C901845F910935
:1050C000029740F334CF2F3F310509F423CF2FCF80
:1050D000F0927B04E1CFF092BE041092C0041092D3
:1050E000BF0425CF0E94900222CF840C951CA61CE1
:1050F000B71C9B01AC01281939094A095B09421602
:1051000053066406750650F08092160590921705B6
:10511000A0921805B092190561E0D6CE6419750900
:1051200086099709609316057093170580931805F3
:1051300090931905F1CFFC0105900020E9F78095C7
:1051400090958E0F9F1F0895BB27FA01A62F621717
:10515000710581059105330B30FB66F0AA27660FB8
:10516000771F881F991FAA1FA21710F0A21B639513
:105170003850A9F7A05DAA3308F0A95DA19336F7CE
:10518000B111B1931082CA010C94C628DC01FC0154
:10519000672F71917723E1F7329704C07C916D936B
:1051A00070836291AE17BF07C8F30895E89409C0F1
:1051B00097FB3EF490958095709561957F4F8F4F4A
:1051C0009F4F9923A9F0F92F96E9BB279395F69560
:1051D000879577956795B795F111F8CFFAF4BB0FDE
:1051E00011F460FF1BC06F5F7F4F8F4F9F4F16C042
:1051F000882311F096E911C0772321F09EE8872FCC
:10520000762F05C0662371F096E8862F70E060E087
:105210002AF09A95660F771F881FDAF7880F969500
:10522000879597F908950E9426290C9497290E9442
:10523000892938F00E94902920F0952311F00C94D0
:1052400080290C94862911240C94CB290E94A8292A
:1052500070F3959FC1F3950F50E0551F629FF001C9
:10526000729FBB27F00DB11D639FAA27F00DB11DE2
:10527000AA1F649F6627B00DA11D661F829F22276B
:10528000B00DA11D621F739FB00DA11D621F839FF2
:10529000A00D611D221F749F3327A00D611D231FC8
:1052A000849F600D211D822F762F6A2F11249F5716
:1052B00050409AF0F1F088234AF0EE0FFF1FBB1F19
:1052C000661F771F881F91505040A9F79E3F5105D8
:1052D00080F00C9480290C94CB295F3FE4F3983E36
:1052E000D4F3869577956795B795F795E7959F5F82
:1052F000C1F7FE2B880F911D9695879597F9089514
:1053000097F99F6780E870E060E008959FEF80EC78
:10531000089500240A94161617061806090608951B
:1053200000240A9412161306140605060895092E81
:105330000394000C11F4882352F0BB0F40F4BF2BF0
:1053400011F460FF04C06F5F7F4F8F4F9F4F089530
:1053500057FD9058440F551F59F05F3F71F0479526
:10536000880F97FB991F61F09F3F79F0879508950B
:10537000121613061406551FF2CF4695F1DF08C02A
:10538000161617061806991FF1CF86957105610547
:1053900008940895E894BB2766277727CB0197F9EF
:1053A0000895A1E21A2EAA1BBB1BFD010DC0AA1F66
:1053B000BB1FEE1FFF1FA217B307E407F50720F07E
:1053C000A21BB30BE40BF50B661F771F881F991FF9
:1053D0001A9469F760957095809590959B01AC0142
:1053E000BD01CF010895052E97FB1EF400940E9485
:1053F0000A2A57FD07D00E94D12907FC03D04EF49A
:105400000C940A2A50954095309521953F4F4F4F67
:105410005F4F089590958095709561957F4F8F4F60
:105420009F4F08952F923F924F925F926F927F927B
:105430008F929F92AF92BF92CF92DF92EF92FF92A4
:105440000F931F93CF93DF93CDB7DEB7CA1BDB0B50
:105450000FB6F894DEBF0FBECDBF09942A883988F5
:1054600048885F846E847D848C849B84AA84B984FC
:10547000C884DF80EE80FD800C811B81AA81B98108
:10548000CE0FD11D0FB6F894DEBF0FBECDBFED011C
:1054900008955058BB27AA270E94612A0C94972987
:1054A0000E94892938F00E94902920F039F49F3F0A
:1054B00019F426F40C9486290EF4E095E7FB0C947D
:1054C0008029E92F0E94A82958F3BA1762077307A9
:1054D0008407950720F079F4A6F50C94CA290EF4F8
:1054E000E0950B2EBA2FA02D0B01B90190010C01F4
:1054F000CA01A0011124FF27591B99F0593F50F40C
:10550000503E68F11A16F040A22F232F342F442763
:10551000585FF3CF469537952795A795F04053955B
:10552000C9F77EF41F16BA0B620B730B840BBAF02B
:105530009150A1F0FF0FBB1F661F771F881FC2F796
:105540000EC0BA0F621F731F841F48F487957795AA
:105550006795B795F7959E3F08F0B0CF9395880F64
:1055600008F09927EE0F9795879508950E94BD2A18
:105570006894B1110C94CB2908950E94B02988F049
:105580009F5798F0B92F9927B751B0F0E1F0660F07
:10559000771F881F991F1AF0BA95C9F714C0B13048
:1055A00091F00E94CA29B1E008950C94CA29672F8E
:1055B000782F8827B85F39F0B93FCCF38695779577
:1055C0006795B395D9F73EF4909580957095619560
:1055D0007F4F8F4F9F4F0895991B79E004C0991F0B
:1055E000961708F0961B881F7A95C9F7809508953D
:1055F00097FB072E16F4009407D077FD09D00E9480
:10560000122B07FC05D03EF4909581959F4F08958D
:10561000709561957F4F0895EE0FFF1F0590F491EF
:10562000E02D0994AA1BBB1B51E107C0AA1FBB1F99
:10563000A617B70710F0A61BB70B881F991F5A951E
:10564000A9F780959095BC01CD0108950F931F9304
:10565000CF93DF938230910510F482E090E0E091E7
:105660008706F091880630E020E0B0E0A0E03097B7
:1056700099F42115310509F44AC0281B390B24304F
:105680003105D8F58A819B816115710589F1FB018E
:1056900093838283FE0111C0408151810281138175
:1056A00048175907E0F04817590799F4109761F027
:1056B00012960C93129713961C933296CF01DF919A
:1056C000CF911F910F91089500938706109388063C
:1056D000F4CF2115310551F04217530738F0A901D5
:1056E000DB019A01BD01DF01F801C1CFEF01F9CF64
:1056F0009093880680938706CDCFFE01E20FF31FBB
:10570000819391932250310939832883D7CF2091F7
:10571000850630918606232B41F4209106013091B5
:10572000070130938606209385062091040130916D
:1057300005012115310541F42DB73EB7409108010F
:1057400050910901241B350BE0918506F0918606E6
:10575000E217F307A0F42E1B3F0B2817390778F048
:10576000AC014E5F5F4F2417350748F04E0F5F1FA7
:105770005093860640938506819391939FCFF0E0E6
:10578000E0E09CCFCF93DF930097E9F0FC013297E4
:1057900013821282A0918706B0918806ED0130E055
:1057A00020E01097A1F420813181820F931F209176
:1057B0008506309186062817390709F061C0F093F5
:1057C0008606E0938506DF91CF910895EA01CE1712
:1057D000DF07E8F54A815B819E0141155105B1F76C
:1057E000E901FB83EA8349915991C40FD51FEC1756
:1057F000FD0761F4808191810296840F951FE90174
:1058000099838883828193819B838A83F0E0E0E09F
:1058100012968D919C9113970097B9F52D913C911B
:105820001197CD010296820F931F2091850630912A
:1058300086062817390739F6309751F510928806F1
:1058400010928706B0938606A0938506BCCFD383BB
:10585000C28340815181840F951FC817D90761F415
:105860004E5F5F4F88819981480F591F5183408354
:105870008A819B81938382832115310509F0B0CF02
:10588000F0938806E09387069ECFFD01DC01C0CF30
:1058900013821282D7CFB0E0A0E0E1E5FCE20C94E5
:1058A000142A8C01009751F4CB010E94262B8C0105
:1058B000C801CDB7DEB7E0E10C94302AFC01E60F59
:1058C000F71F9C0122503109E217F30708F49DC02D
:1058D000D901CD91DC911197C617D70798F0C53043
:1058E000D10530F3CE0104978617970708F3C61B3E
:1058F000D70B2297C193D1936D937C93CF010E94D4
:10590000C22BD6CF5B01AC1ABD0A4C018C0E9D1E7A
:10591000A0918706B0918806512C412CF12CE12CE6
:10592000109731F580918506909186068815990526
:1059300009F05CC04616570608F058C08091040173
:1059400090910501009741F48DB79EB740910801F1
:1059500050910901841B950BE817F90708F055C011
:10596000F0938606E0938506F90171836083A0CFEA
:105970008D919C91119712966C90129713967C9032
:105980001397A815B90559F56C0142E0C40ED11C56
:10599000CA14DB0420F1AC014A195B09DA01129642
:1059A000159780F06282738251834083D9016D9391
:1059B0007C93E114F10471F0D7011396FC93EE93FC
:1059C000129776CF22968C0F9D1FF90191838083C9
:1059D000F301EFCFF0938806E093870669CF48166E
:1059E000590608F42C017D01D3019ACFCB010E9406
:1059F000262B7C01009749F0AE01B8010E94082DCA
:105A0000C8010E94C22B870153CF10E000E050CFA5
:105A1000FB01DC0102C001900D9241505040D8F7CB
:105A20000895DC0101C06D9341505040E0F70895A6
:105A3000FB01DC0101900D920020E1F70895F8943C
:025A4000FFCF96
:105A42005706570600008906800001030201000084
:105A520000002D08E403DE0A110489089F081508D6
:105A6200000000008504E4031204ED044304210451
:105A7200350400000000AF0A820ADE0A11047B0A24
:105A8200680A590A00000000820C980CA212680CE5
:105A9200C20C670C111700000000290C350D190DFE
:105AA200090D971175111B1700000000290C250E16
:105AB200930D5C0D380D370D131700000000290CF3
:105AC2002A0CDB1CDD16FC0AE10ADB1600000000D2
:105AD2008D11B2134B1AAC13971176111D170000DA
